{
  "transactions": [
    {
      "hash": "0x76154c5c7f4392e3c01f5842fccca6ee99c85d568d9f5410d388638561e13ed8",
      "transactionType": "CALL",
      "contractName": null,
      "contractAddress": "0x779877a7b0d9e8603169ddbd7836e478b4624789",
      "function": "transferAndCall(address,uint256,bytes)",
      "arguments": [
        "0x9DdfaCa8183c41ad55329BdeeD9F6A8d53168B1B",
        "1000000000000000000",
        "0x8c68cc420e0ad151c9dffdbafe112c6510f98ecb27c2cc376fe4280fc00570c0"
      ],
      "transaction": {
        "from": "0xe7a5b06e8dc5863566b974a4a19509898bdec277",
        "to": "0x779877a7b0d9e8603169ddbd7836e478b4624789",
        "gas": "0x1c1ff",
        "value": "0x0",
        "input": "0x4000aea00000000000000000000000009ddfaca8183c41ad55329bdeed9f6a8d53168b1b0000000000000000000000000000000000000000000000000de0b6b3a7640000000000000000000000000000000000000000000000000000000000000000006000000000000000000000000000000000000000000000000000000000000000208c68cc420e0ad151c9dffdbafe112c6510f98ecb27c2cc376fe4280fc00570c0",
        "nonce": "0x64",
        "chainId": "0xaa36a7"
      },
      "additionalContracts": [],
      "isFixedGasLimit": false
    }
  ],
  "receipts": [
    {
      "status": "0x1",
      "cumulativeGasUsed": "0x40a324",
      "logs": [
        {
          "address": "0x779877a7b0d9e8603169ddbd7836e478b4624789",
          "topics": [
            "0xddf252ad1be2c89b69c2b068fc378daa952ba7f163c4a11628f55a4df523b3ef",
            "0x000000000000000000000000e7a5b06e8dc5863566b974a4a19509898bdec277",
            "0x0000000000000000000000009ddfaca8183c41ad55329bdeed9f6a8d53168b1b"
          ],
          "data": "0x0000000000000000000000000000000000000000000000000de0b6b3a7640000",
          "blockHash": "0x9703ad92048b573ae1e28ed6af9b8854d3bd99f30ea9bde208229852f24e5f6c",
          "blockNumber": "0x6edde6",
          "transactionHash": "0x76154c5c7f4392e3c01f5842fccca6ee99c85d568d9f5410d388638561e13ed8",
          "transactionIndex": "0x28",
          "logIndex": "0x47",
          "removed": false
        },
        {
          "address": "0x779877a7b0d9e8603169ddbd7836e478b4624789",
          "topics": [
            "0xe19260aff97b920c7df27010903aeb9c8d2be5d310a2c67824cf3f15396e4c16",
            "0x000000000000000000000000e7a5b06e8dc5863566b974a4a19509898bdec277",
            "0x0000000000000000000000009ddfaca8183c41ad55329bdeed9f6a8d53168b1b"
          ],
          "data": "0x0000000000000000000000000000000000000000000000000de0b6b3a7640000000000000000000000000000000000000000000000000000000000000000004000000000000000000000000000000000000000000000000000000000000000208c68cc420e0ad151c9dffdbafe112c6510f98ecb27c2cc376fe4280fc00570c0",
          "blockHash": "0x9703ad92048b573ae1e28ed6af9b8854d3bd99f30ea9bde208229852f24e5f6c",
          "blockNumber": "0x6edde6",
          "transactionHash": "0x76154c5c7f4392e3c01f5842fccca6ee99c85d568d9f5410d388638561e13ed8",
          "transactionIndex": "0x28",
          "logIndex": "0x48",
          "removed": false
        },
        {
          "address": "0x9ddfaca8183c41ad55329bdeed9f6a8d53168b1b",
          "topics": [
            "0x1ced9348ff549fceab2ac57cd3a9de38edaaab274b725ee82c23e8fc8c4eec7a",
            "0x8c68cc420e0ad151c9dffdbafe112c6510f98ecb27c2cc376fe4280fc00570c0"
          ],
          "data": "0x00000000000000000000000000000000000000000000000000000000000000000000000000000000000000000000000000000000000000000de0b6b3a7640000",
          "blockHash": "0x9703ad92048b573ae1e28ed6af9b8854d3bd99f30ea9bde208229852f24e5f6c",
          "blockNumber": "0x6edde6",
          "transactionHash": "0x76154c5c7f4392e3c01f5842fccca6ee99c85d568d9f5410d388638561e13ed8",
          "transactionIndex": "0x28",
          "logIndex": "0x49",
          "removed": false
        }
      ],
      "logsBloom": "0x00000004000000000000000000000000000000000020000001000000020000000000000000000000000000000000000000000000000000000000000000000000000000000000000000000008000001000000000000000000000020000020000008000000000000000000000000000000000000000000000000000010000040000000000000000000000000010000800000000020000000000000000000000000000000000000000000000000010000000002000000000000000004000000000000000002000000000000000000000000000000000000000100000000002000000010040000000000800000000000000000000000000004000000000000000000",
      "type": "0x2",
      "transactionHash": "0x76154c5c7f4392e3c01f5842fccca6ee99c85d568d9f5410d388638561e13ed8",
      "transactionIndex": "0x28",
      "blockHash": "0x9703ad92048b573ae1e28ed6af9b8854d3bd99f30ea9bde208229852f24e5f6c",
      "blockNumber": "0x6edde6",
      "gasUsed": "0x133b1",
      "effectiveGasPrice": "0x32f864ba4",
      "from": "0xe7a5b06e8dc5863566b974a4a19509898bdec277",
      "to": "0x779877a7b0d9e8603169ddbd7836e478b4624789",
      "contractAddress": null
    }
  ],
  "libraries": [],
  "pending": [],
  "returns": {},
  "timestamp": 1734031885,
  "chain": 11155111,
  "commit": "f131096"
}